{
  "contractName": "Lottery",
  "abi": [
    {
      "inputs": [],
      "payable": false,
      "stateMutability": "nonpayable",
      "type": "constructor"
    },
    {
      "anonymous": false,
      "inputs": [
        {
          "indexed": false,
          "internalType": "uint256",
          "name": "index",
          "type": "uint256"
        },
        {
          "indexed": false,
          "internalType": "address",
          "name": "bettor",
          "type": "address"
        },
        {
          "indexed": false,
          "internalType": "uint256",
          "name": "amount",
          "type": "uint256"
        },
        {
          "indexed": false,
          "internalType": "bytes1",
          "name": "challenges",
          "type": "bytes1"
        },
        {
          "indexed": false,
          "internalType": "uint256",
          "name": "answerBlockNumber",
          "type": "uint256"
        }
      ],
      "name": "BET",
      "type": "event"
    },
    {
      "constant": true,
      "inputs": [],
      "name": "owner",
      "outputs": [
        {
          "internalType": "address",
          "name": "",
          "type": "address"
        }
      ],
      "payable": false,
      "stateMutability": "view",
      "type": "function"
    },
    {
      "constant": true,
      "inputs": [],
      "name": "getPot",
      "outputs": [
        {
          "internalType": "uint256",
          "name": "pot",
          "type": "uint256"
        }
      ],
      "payable": false,
      "stateMutability": "view",
      "type": "function"
    },
    {
      "constant": false,
      "inputs": [
        {
          "internalType": "bytes1",
          "name": "challenges",
          "type": "bytes1"
        }
      ],
      "name": "bet",
      "outputs": [
        {
          "internalType": "bool",
          "name": "result",
          "type": "bool"
        }
      ],
      "payable": true,
      "stateMutability": "payable",
      "type": "function"
    },
    {
      "constant": true,
      "inputs": [
        {
          "internalType": "uint256",
          "name": "index",
          "type": "uint256"
        }
      ],
      "name": "getBetInfo",
      "outputs": [
        {
          "internalType": "uint256",
          "name": "answerBlockNumber",
          "type": "uint256"
        },
        {
          "internalType": "address",
          "name": "bettor",
          "type": "address"
        },
        {
          "internalType": "bytes1",
          "name": "challenges",
          "type": "bytes1"
        }
      ],
      "payable": false,
      "stateMutability": "view",
      "type": "function"
    },
    {
      "constant": false,
      "inputs": [
        {
          "internalType": "bytes1",
          "name": "challenges",
          "type": "bytes1"
        }
      ],
      "name": "pushBet",
      "outputs": [
        {
          "internalType": "bool",
          "name": "",
          "type": "bool"
        }
      ],
      "payable": false,
      "stateMutability": "nonpayable",
      "type": "function"
    },
    {
      "constant": false,
      "inputs": [
        {
          "internalType": "uint256",
          "name": "index",
          "type": "uint256"
        }
      ],
      "name": "popBet",
      "outputs": [
        {
          "internalType": "bool",
          "name": "",
          "type": "bool"
        }
      ],
      "payable": false,
      "stateMutability": "nonpayable",
      "type": "function"
    }
  ],
  "bytecode": "0x608060405234801561001057600080fd5b50336000806101000a81548173ffffffffffffffffffffffffffffffffffffffff021916908373ffffffffffffffffffffffffffffffffffffffff160217905550610816806100606000396000f3fe6080604052600436106100555760003560e01c8063032820961461005a578063403c9fa8146100cf57806379141f80146100fa5780638da5cb5b146101c7578063d04c9a8c1461021e578063f4b46f5b14610271575b600080fd5b34801561006657600080fd5b506100b56004803603602081101561007d57600080fd5b8101908080357effffffffffffffffffffffffffffffffffffffffffffffffffffffffffffff191690602001909291905050506102d9565b604051808215151515815260200191505060405180910390f35b3480156100db57600080fd5b506100e461041f565b6040518082815260200191505060405180910390f35b34801561010657600080fd5b506101336004803603602081101561011d57600080fd5b8101908080359060200190929190505050610429565b604051808481526020018373ffffffffffffffffffffffffffffffffffffffff1673ffffffffffffffffffffffffffffffffffffffff168152602001827effffffffffffffffffffffffffffffffffffffffffffffffffffffffffffff19167effffffffffffffffffffffffffffffffffffffffffffffffffffffffffffff19168152602001935050505060405180910390f35b3480156101d357600080fd5b506101dc61052e565b604051808273ffffffffffffffffffffffffffffffffffffffff1673ffffffffffffffffffffffffffffffffffffffff16815260200191505060405180910390f35b34801561022a57600080fd5b506102576004803603602081101561024157600080fd5b8101908080359060200190929190505050610553565b604051808215151515815260200191505060405180910390f35b6102bf6004803603602081101561028757600080fd5b8101908080357effffffffffffffffffffffffffffffffffffffffffffffffffffffffffffff191690602001909291905050506105b7565b604051808215151515815260200191505060405180910390f35b60006102e3610788565b33816020019073ffffffffffffffffffffffffffffffffffffffff16908173ffffffffffffffffffffffffffffffffffffffff1681525050600343018160000181815250508281604001907effffffffffffffffffffffffffffffffffffffffffffffffffffffffffffff191690817effffffffffffffffffffffffffffffffffffffffffffffffffffffffffffff191681525050806002600060035481526020019081526020016000206000820151816000015560208201518160010160006101000a81548173ffffffffffffffffffffffffffffffffffffffff021916908373ffffffffffffffffffffffffffffffffffffffff16021790555060408201518160010160146101000a81548160ff021916908360f81c02179055509050506003600081548092919060010191905055506001915050919050565b6000600154905090565b6000806000610436610788565b60026000868152602001908152602001600020604051806060016040529081600082015481526020016001820160009054906101000a900473ffffffffffffffffffffffffffffffffffffffff1673ffffffffffffffffffffffffffffffffffffffff1673ffffffffffffffffffffffffffffffffffffffff1681526020016001820160149054906101000a900460f81b7effffffffffffffffffffffffffffffffffffffffffffffffffffffffffffff19167effffffffffffffffffffffffffffffffffffffffffffffffffffffffffffff1916815250509050806000015193508060200151925080604001519150509193909250565b6000809054906101000a900473ffffffffffffffffffffffffffffffffffffffff1681565b6000600260008381526020019081526020016000206000808201600090556001820160006101000a81549073ffffffffffffffffffffffffffffffffffffffff02191690556001820160146101000a81549060ff0219169055505060019050919050565b60006611c37937e080003414610635576040517f08c379a000000000000000000000000000000000000000000000000000000000815260040180806020018281038252600e8152602001807f4e6f7420656e6f7567682045544800000000000000000000000000000000000081525060200191505060405180910390fd5b61063e826102d9565b6106b0576040517f08c379a000000000000000000000000000000000000000000000000000000000815260040180806020018281038252601a8152602001807f4661696c20746f206164642061206e65772042657420496e666f00000000000081525060200191505060405180910390fd5b7f100791de9f40bf2d56ffa6dc5597d2fd0b2703ea70bc7548cd74c04f5d215ab760016003540333348560034301604051808681526020018573ffffffffffffffffffffffffffffffffffffffff1673ffffffffffffffffffffffffffffffffffffffff168152602001848152602001837effffffffffffffffffffffffffffffffffffffffffffffffffffffffffffff19167effffffffffffffffffffffffffffffffffffffffffffffffffffffffffffff191681526020018281526020019550505050505060405180910390a160019050919050565b604051806060016040528060008152602001600073ffffffffffffffffffffffffffffffffffffffff16815260200160007effffffffffffffffffffffffffffffffffffffffffffffffffffffffffffff19168152509056fea265627a7a72315820ea34f6835332c2330689beb509a565ac5a125cf85f58f7a35f482d05d0f7a03064736f6c63430005100032",
  "source": "pragma solidity >=0.4.21 <0.7.0;\n\ncontract Lottery {\n    struct BetInfo {\n        uint256 answerBlockNumber;\n        address payable bettor; // payble 을 넣어야지 여기로 돈을 보낼 수 있음\n        byte challenges;\n    }\n\n    // public 으로 만들면 자동으로 getter 를 만들어줌\n    address public owner;\n    \n    uint256 private _pot;\n\n    // smart contract 안에서만 사용하니까 internal\n    uint256 constant internal BET_AMOUT = 5 * 10 ** 15; // 0.005 ETH\n    uint256 constant internal BET_BLOCK_INTERVAL = 3;\n    uint256 constant internal BLOCK_LIMIT = 256;\n\n    // queue 로 block 담기\n    mapping(uint256 => BetInfo) private _bets;\n    uint256 private _tail;\n    uint256 private _head;\n\n    event BET(uint256 index, address bettor, uint256 amount, byte challenges, uint256 answerBlockNumber);\n    constructor() public {\n        owner = msg.sender;\n    }\n\n    // smart contract 내부 값을 볼 때는 view 를 이용\n    function getPot() public view returns (uint256 pot) {\n        return _pot;\n    }\n\n    // Bet\n    \n    /**\n     * @dev 베팅을 한다. 유저는 0.005 ETH 와 함께 1 bytr 글자를 보낸다.\n     * 큐에 저장된 베팅 정보는 이후 distribute 함수에서 해결\n     * @param challenges 유저가 베팅하는 글자\n     * @return 함수가 잘 수행되었는지 확인하는 bool 값\n     */\n\n    // 사람이 베팅할 때 돈을 보내니까 payable\n    function bet(byte challenges) public payable returns (bool result){\n        // Check the proper ether is sent\n        require(msg.value == BET_AMOUT, \"Not enough ETH\");\n        \n        // Push bet to the queue\n        require(pushBet(challenges), \"Fail to add a new Bet Info\");\n        \n        // Emit event\n        emit BET(_tail -1, msg.sender, msg.value, challenges, block.number + BET_BLOCK_INTERVAL);\n\n        return true;\n    }\n\n    // Distribute (분배)\n      // check the answer\n\n    function getBetInfo(uint256 index) public view returns (uint256 answerBlockNumber, address bettor, byte challenges) {\n        BetInfo memory b = _bets[index];\n        answerBlockNumber = b.answerBlockNumber;\n        bettor = b.bettor;\n        challenges = b.challenges;\n    }\n\n    function pushBet(byte challenges) public returns (bool) {\n        BetInfo memory b;\n        b.bettor = msg.sender;\n        b.answerBlockNumber = block.number + BET_BLOCK_INTERVAL;\n        b.challenges = challenges;\n\n        _bets[_tail] = b;\n        _tail++;\n\n        return true;\n    }\n\n    function popBet(uint256 index) public returns (bool) {\n        // delete 를 하면 gas를 돌려받게 된다.\n        delete _bets[index];\n        return true;\n    }\n}",
  "sourcePath": "/Users/delphine/Desktop/delphine/blockchainStudy/truffleExample/contracts/Lottery.sol",
  "compiler": {
    "name": "solc",
    "version": "0.5.16+commit.9c3226ce.Emscripten.clang"
  },
  "schemaVersion": "3.1.0",
  "updatedAt": "2020-04-25T07:32:04.288Z",
  "devdoc": {
    "methods": {
      "bet(bytes1)": {
        "details": "베팅을 한다. 유저는 0.005 ETH 와 함께 1 bytr 글자를 보낸다. 큐에 저장된 베팅 정보는 이후 distribute 함수에서 해결",
        "params": {
          "challenges": "유저가 베팅하는 글자"
        },
        "return": "함수가 잘 수행되었는지 확인하는 bool 값"
      }
    }
  },
  "userdoc": {
    "methods": {}
  }
}